:040000006F009030CD
:1000040000000000000000006F00B02C6F00902C76
:1000140011BFF9F70000000000000000000000001C
:1000240000000000000000000000000000000000CC
:100034006F00702A000000006F00102A000000000A
:100044006F00B0296F10A06D6F0070296F005029E8
:100054006F10606C6F1080756F00F0286F00D028EF
:100064006F00B0286F1020046F0070286F005028B4
:100074006F0020746F0010286F00F0276F00D027E6
:100084006F00B0276F0090276F0070276F00502714
:100094006F00302700000000000000000000000096
:1000A400000000000000000000000000000000004C
:0C00B40000000000000000000000000040
:1000C000B78700401307001498C34947D8C3375770
:1000D0004C00130717B4B786004011A03DCB9C4AD3
:1000E0007D17918BE5FF23AE060623AC060623A6FB
:1000F000060823A4060823AE060823AC060823A698
:10010000060A23A4060A23AE060A23AC060A23A67F
:10011000060C23A4060C23AE060C23AC060C23A667
:10012000060E23A4060ECD47DCD2B7070300938743
:1001300017029CD2B7C7100023A806069387D7C71B
:100140009CC69C42014593E727009CC28947DCC2BC
:100150008280054582804545828093178501E1872D
:100160001D8963CC0700C1673395A700B78700409E
:10017000B85B81CD3A95A8DB8280B7070001339543
:10018000A700B7870040B85BF5F51345F5FF798DFB
:10019000A8DB8280B787004088DF8280B787004075
:1001A0002147D8D3985311C5B7060800369798D37E
:1001B0008280B706F8FFFD16758F98D38280B787C7
:1001C00000409387870712053E951C4113D707010E
:1001D0002310F6007D8BF5832380E500858B23803B
:1001E000F6008280B78700409387870712053E9507
:1001F0001C414206EA054D8E5D8E10C18280B78794
:1002000000409387870712053E951C413707E0039E
:10021000F98F1CC18280B78700409387870712053A
:100220003E951C41860785831CC18280B7870040AC
:100230009387870712053E9508416181137505086C
:100240008280B78700409387C70712053E95C20694
:100250006A061C41D18E1377F77FD98EF205CD8EB9
:10026000DD8E14C18280B78700409387C7071205CF
:100270003E951C41860785831CC18280B78700405C
:100280009387C70712053E951C413707E003F98F96
:100290001CC18280B78700409387C70712053E952F
:1002A00008416181137505088280B78700409387F4
:1002B000C70712053E95084141817D898280937769
:1002C000F50062058A079A056185CD8F63480500B0
:1002D00093E71700378700407CC3828093E737009D
:1002E000378700407CC38280378700401C536205FB
:1002F000A207A1831CD31C535D8D08D38280B786CF
:100300000040DC4237870040F19B5D8DC8C21C4B2A
:10031000918BF5FF8280B78700408853618182808E
:10032000B7870040A85F1375F57F8280411122C412
:10033000378400405C5006C6858BC9C75C50585056
:10034000A18331839D8B058BA5E379EB3C5C1397EF
:100350001700635B070E232C040678587458B70700
:1003600002203E97B69783C707000344070093F720
:10037000070663900710EF10201662046184C167BE
:10038000634104121387F7FF630FE5126306051438
:10039000130700206366A70437870040B7060104EF
:1003A00034DF85077CC32DA8FD178A0739E7370797
:1003B0000020130787012244BA97B24003A3C70164
:1003C000410102835C50898B85C33C4C1307000AB2
:1003D00093F7071E638EE702B78700400947D8D31B
:1003E000B2402244410182805C50A18BF5DB085869
:1003F000EF10306FA1475CD0E5B737070020130737
:1004000087012244BA97B24003A307004101028347
:100410009307002C3CC423260404232804046DBF46
:10042000EF10002783A6C185850623AED18429E578
:1004300023AE0184B70701147CDCB70701043CDC60
:10044000930710047CC069BF3C5C13972700635975
:100450000700EF10402B232E0406232C040649B777
:10046000EF10202AB70701043CDC930710047CC07E
:1004700085BFEF00B07A11B7232C04067C5C03A77C
:10048000C185B70620EC938606C05607F58FD98F35
:10049000C98F37070114D98F7CDC930710047CC007
:1004A00081B7FD176301F50205C993070020E3E951
:1004B000A7F237070114B7870040598DE8DF13070B
:1004C0001004F8C331BFB787004037070108F8DFD1
:1004D00013071004F8C329B7B78700403707010492
:1004E000B8DF13071004F8C3E5BD3D432A876373E3
:1004F000C3029377F700BDEFADE5937606FF3D8A23
:10050000BA960CC34CC30CC74CC74107E36BD7FE6C
:1005100011E28280B306C3408A06970200009696D5
:100520006780A6002307B700A306B7002306B7001D
:10053000A305B7002305B700A304B7002304B70041
:10054000A303B7002303B700A302B7002302B70039
:10055000A301B7002301B700A300B7002300B70031
:10056000828093F5F50F93968500D58D93960501BE
:10057000D58D61B7939627009702000096968682E4
:10058000E78086FA9680C1171D8F3E96E374C3F804
:10059000A5B7797122D437142707130504E006D6CE
:1005A00026D24AD04ECE52CC56CA5AC85EC662C473
:1005B00066C29524130504E0B521B737004005470E
:1005C0002387E740130720082396E740130770FCB2
:1005D0002381E7400D47A381E74013070004A38070
:1005E000E740371400407C4C8945056593E70718C0
:1005F0007CCC3C4093E707103CC0192EA145116507
:10060000012EA145216529267C443167D98F7CC400
:10061000371700407C4393963701E3DD06FE130550
:100620004006B921B7170040F84393163701E3DDC0
:1006300006FEB843B7162000938606A0558FB8C3B0
:10064000B84385669386068013670740B8C3B84FE2
:100650003764022013040420558FB8CFB7670040D9
:1006600003C70700B7E400E0130540061377270F20
:100670002380E70003C70700376A0040136797002D
:100680002380E70003C70700930B8A027D8B23803A
:10069000E70003C737003D4C13673702A381E7002B
:1006A00003C737001377370EA381E70003C717008E
:1006B0001377770EA380E7003D472384E7021947AD
:1006C0002381E70023A0070223A207020567C0C712
:1006D0007D17239AE700239CE70003C717001367E1
:1006E0003700A380E700B707001023A0F4104926C5
:1006F000B797004023A00700B707100023A0F4100D
:10070000B707200023A0F410B707020023A0F410BD
:100710000547B72700403755FE032381E70013053F
:10072000056C45260545EF00B041B787004023A082
:100730008708B714004093870183238007009387BD
:1007400011832380070023268A0023808B01BC4469
:10075000216793860183D98FBCC41387118383C714
:10076000060093F7F70FE5DFFC44A166D58FFCC4C4
:10077000834707001387818293F7F70F8DEB23845C
:100780000184B78700408545054523A087081307E6
:10079000004091460546753491451305100805360D
:1007A00083C7818493F7F70FE5DF138741831C43E9
:1007B00085071CC349B7376700408347870293F713
:1007C000F70F93F6270095CA89462304D7020347FB
:1007D000970293861183198B3337E0002380E6005C
:1007E00003C706001377F70F11E71387C18214437D
:1007F000850614C385462388D182918B99CBB76730
:10080000004011472384E7028547A388F1822388AB
:10081000F18273002030B7470F00938707243355C8
:10082000F5029307C0031375F50F630CF50863ED2C
:10083000A700BD476303F504F9476303F506B7173F
:100840000040238007008280930700066308F508B4
:10085000930780076301F50A93070005E311F5FE8E
:10086000B7170040130770052380E700130780FACD
:100870002380E7001307600481A0B7170040130727
:1008800070052380E700130780FA2380E700130731
:1008900020042384E700130700F82385E70045B709
:1008A000B7170040130770052380E700130780FA8D
:1008B0002380E700130700042384E700130720F8D0
:1008C000E9BFB7170040130770052380E70013073F
:1008D00080FA2380E70013078004F9BFB7170040B0
:1008E000130770052380E700130780FA2380E700D1
:1008F00013075004D1B7B7170040130770052380C2
:10090000E700130780FA2380E700130740046DB760
:10091000A94763E6B7028D67938747EC8A05BE95C2
:100920009C418287B7170040F84B1345F5FF698F4C
:10093000F8CBB84B698FB8CBB843798DA8C3828008
:10094000B7170040F44F1347F5FFF98EF4CFF44B7F
:10095000F98EF4CBB44B558DA8CB31A8B717004016
:10096000F44F1347F5FFF98EF4CFF44B558DE8CBD8
:10097000B44BF98EB4CBB443758FB8C38280B7172C
:100980000040F84F498FF8CFF44B1347F5FFC9B734
:10099000B7170040F84F498FF8CFF84B498FF8CB85
:1009A000B84B1345F5FF79B7B7170040F84F498F9B
:1009B000F8CFB44F1347F5FFF98EB4CFF44B21A80D
:1009C000B7170040F84F498FF8CFB84F498FB8CFCD
:1009D000F44B1347F5FF758FF8CBB843598DB9BF6A
:1009E000B7170040F44F1347F5FFF98EF4CFB44F1B
:1009F000E1B7B7170040F44F1347F5FFF98EF4CF76
:100A0000B44FC98E5DBFB7170040B44F1347F5FF11
:100A1000758FB8CFF84B498FC1B7B7170040B84FA3
:100A2000498FC5BFB7177A00938707203355F50262
:100A30001375F50F238DA1829307803E3305F502D0
:100A4000239CA1828280B7F700E023A0070003C7A0
:100A5000A1833305A70213071010C8C723A80700F6
:100A600098C3D84B098B75DFD84B759BD8CB828048
:100A700003D78183B7F700E023A007003305A7025F
:100A800013071010C8C723A8070098C3D84B098BB9
:100A900075DFD84B759BD8CB8280814737370040B4
:100AA000A14663C4C700328582800345B740E38E08
:100AB000A6FE3385F5000345050085072304A740FE
:100AC000CDB7B7270040C8C709472380E700514783
:100AD0002380E700828001A001A001A001A001A065
:100AE00001A001A001A001A001A001A001A001A0FE
:100AF00001A001A001A001A001A001A001A001A0EE
:100B000001A001A001A001A097010020938181DA3A
:100B1000173100201301014F172500001305C57080
:100B200097F5FF1F9385054E1386818263FAC500F2
:100B30008322050023A0550011059105E3EAC5FEB7
:100B400013858182938581876377B5002320050013
:100B50001105E36DB5FE17F501201305A54A97F5BC
:100B600001209385254A6377B500232005001105F0
:100B7000E36DB5FE9302800873A0023097F2FFFF89
:100B80009382824893E212007390523097020000E1
:100B9000938262A07390123473002030B7970040A4
:100BA0001307C0FC2388E700A388E7002389E70038
:100BB0003147A389E700130700042398E70493064D
:100BC0000020239AD704239CD704239ED704239084
:100BD000D7062392D7062394D706370702202396F9
:100BE000D70613070700D8CB376702201307072063
:100BF000D8DB98CF375702201307072098DFD8CFCC
:100C00003747022013070720D8DF98D33737022051
:100C100013070720B8C3D8D33727022013070720AC
:100C2000F8C398D73717022013070720B8C7D8D7BB
:100C30003707022013070720F8C798DB2398070619
:100C400023890706A38907060947239A0706238BEA
:100C5000E706A38B0706239CD706238D0706A38DE3
:100C60000706239E0706238FE706A38FE706239038
:100C700007082381E708A381E70823920708238355
:100C8000E708A383E708239407082385E708A385DB
:100C9000E708239607082387E708A387E7088280E9
:100CA000B797004001CD23800700130790032380EE
:100CB000E700130770022381E700CDB519472380B1
:100CC000E7008280011122CC9387C18306CE26CA19
:100CD0004AC84EC62390070083C7E1833705022028
:100CE0002D4793F7F70F834605001384C18363678D
:100CF000F7020D678A07130707EFBA979C438287AD
:100D00009307050083D72700094613D78700630D93
:100D1000C7046367E60085476305F702FD5791A0A6
:100D20008D45630FB704BD47E31AF7FE8D679387C0
:100D300007F223A2F1841387018403560700D947E1
:100D400019A88D679387C7FA23A2F18413870184BA
:100D500003560700C94763E6C70083570700C20769
:100D6000C1832310F4003DA08D67938787F323A2EE
:100D7000F184138701840356070093074007E1BFFE
:100D800093F7F70F85456389B708ADCF6380C70A2E
:100D9000E396E7F803570400C167FD178144638BAE
:100DA000E70483570400C207C183A9C7835704001F
:100DB0001307F003930400046366F70083540400F0
:100DC000C204C180E206E18663DF06001389418424
:100DD00083290900268613050500CE85A699EF1004
:100DE00060502320390183570400858FC207C183D7
:100DF0002310F400F240624426854249D244B249AD
:100E0000056182809387818023A2F1841387018406
:100E100003560700914781B79387C18023A2F184CD
:100E20001387018403560700A14735B78D67938761
:100E300007FC23A2F184138701840356070093075C
:100E4000600211BF9307050003D72700A386E18640
:100E500091B783C7E1862300F500854719B7379717
:100E60000040834787008D8B9DE3B7070020130761
:100E700000042398E70A1307050003572700938708
:100E8000C1862381E70005472382E70021B7834716
:100E9000870009478D8BE390E7FEB70700202147C5
:100EA000C9BF93F7F6010947639DE70413070500DF
:100EB00003474700630BF70263EAE7008547E31F38
:100EC000F7E4B7970040A38B0706E9B513061008AF
:100ED0006302C70213062008E312C7E437970040F5
:100EE000231C0706230DF70675B5B7970040238D21
:100EF00007064DB537970040231A0706230BF70660
:100F000051BDE39D07E09307050003C72700854710
:100F1000E312F7E89387C18603C73700799BA38163
:100F2000E7008DBD13F7F601E30A07DE8947E317F3
:100F3000F7DE9307050003D62700E31106DE83C71B
:100F40004700638FE702636EF7000547E398E7DC2D
:100F5000379700408347770793E73700A30BF706DF
:100F600015BD130710086386E70213072008E397EF
:100F7000E7DA379700408347A70793E737009DB725
:100F8000379700408347B70793E73700A30DF7066D
:100F900011B5379700408347670793E73700B9BF1C
:100FA00089472310F4009307050083D747002310D7
:100FB000050013071008639CE700B797004083C73C
:100FC00067070D478D8BE397E7DC854769B50547D4
:100FD000639DE70037970040034777070D460D8B69
:100FE000E31AC7DA2300F500ADBB13062008639FA0
:100FF000C700B797004083C7A7078D8B0D46E39BBB
:10100000C7D82300E5002310E40069B30946E39341
:10101000C7D8B797004083C7B707C5B783C7E18371
:10102000011106CE22CC26CA4AC84EC693F7F70F46
:1010300015476384E706194701446398E7049387DB
:10104000C18383D707001307F0039384C18313047C
:1010500000046366F70003D404004204418013894E
:10106000418483290900370502202286CE85130595
:101070000500EF10202783D70400A299232039010F
:10108000818FC207C1832390F4002285F24062441D
:10109000D2444249B2490561828003C7D186B797DD
:1010A00000400144A381E700CDB7411122C6379427
:1010B00000408347A40093F7F70F13F707022DC7EB
:1010C000B707022003C707009387070003C617006E
:1010D0002381E184238FC18283D6670013770706BB
:1010E0002390D18401451DE7F13EC167FD176313CD
:1010F000F502231804068D472309F406A309F40614
:10110000B7970040130700022385E70032444101EE
:1011100073002030B79700402398A7062147238902
:10112000E706A389E706E9BF13F72700630B071853
:101130000347B4008347B40085463D8B91838D8B74
:10114000630ED70A01CB89466305D712B7970040D3
:1011500009475DBF0947639BE702C93509E9A14714
:10116000A309F4062318040623090406C5B72318A7
:10117000A4068347240793C787002309F4068347FF
:10118000240793F7C70F2309F406C9B7E1F3938641
:10119000C1830357C40083D606009387C18363725B
:1011A000D7040357C40083D607004207418333871F
:1011B000E640420741832390E70083D70700C20738
:1011C000C1839DC3B797004003C737071347870004
:1011D000A389E70603C737071377C70FA389E70675
:1011E000B5B703D70700C1B7B797004023980706E4
:1011F00021472389E706A389070689BF0947639F1B
:10120000E702231A04068347640793C78700230B6A
:10121000F4068347640793F7C70F93E72700230B70
:10122000F4068347740793C78700A30BF40683472C
:10123000740793F7C70FA30BF40609BF81FB03578D
:10124000C40083477407420793F7C70F93E727004B
:10125000A30BF406B7670220938707205CD841836D
:10126000231AE4068347640793F7C70F230BF4069A
:10127000F1BD6394E702B7570220938707201CDC77
:101280008347A40793C78700230DF4068347A40769
:1012900093F7C70F230DF40655BDE39907EAB75737
:1012A0000220938707205CCC8347B40793C787004D
:1012B000A30DF4068347B40793F7C70FA30DF406F5
:1012C00071B513F7170031CBEFF05F8D8547A301A0
:1012D00004002305F40083C71185054793F7F70F32
:1012E000E396E7E237E700E0B70610002320D710C7
:1012F000B70620002320D710B70602002320D710FE
:101300003755FE03372700402301F7001305056C0E
:10131000EFF02FFB05452D20D5BB918BE38807DE31
:1013200091472305F400DDB3B7E700E04147B4433C
:10133000B8C305473315A70023A0A718B4C38280FC
:10134000411106C655C1EFE0BFD701C937350000CE
:101350001305851BEF10001201A04167B7870040FD
:101360007D17B8DB3707022013070700F8DB375873
:1013700002203747022023A0E7081308082037453A
:10138000022023AA070913050520B735022023A050
:10139000A70A938505203726022023A8B70A13063B
:1013A0000620B716022023A0C70C93860620370715
:1013B000022023A8D70C13070720B768022023A018
:1013C000E70E9388082023A2170923A8070923A260
:1013D000A70A23AAB70A23A2C70C23AAD70C23A2C1
:1013E000E70EB240410182800945EFE05FF1B78727
:1013F00000401307800298C34D47D8C323A40700B9
:10140000194798D3F9BF4111014506C6153F51450B
:10141000EFF00FE6B240054541011DB70111370558
:10142000022022CC1307050006CE26CA4AC84EC6A3
:1014300052C456C203461700835667002388C184EE
:1014400023A6D1848945938701856318B606834511
:10145000470015466393C5069307E0081384C184CB
:101460000347070063F3D7001CC08D6504409386D3
:10147000450123AAD184930600202689138A418539
:10148000938A450163F4960013090020931787019E
:1014900093190901E18793D9090163DC07004A86A2
:1014A0009385450113050500CA9AEF00B063232018
:1014B0005A01B384244104C031A07D57C1692380FF
:1014C000E700FD19F24062444E85D2444249B249D8
:1014D000224A924A0561828001113705022022CCFE
:1014E00006CE26CA4AC84EC652C456C29305050047
:1014F00083C7150003D765009386C1842388F184D0
:1015000098C21948138601851384C1846383070731
:10151000930805006364F802054701496389E702FF
:10152000638207160D476384E70215476387E71454
:10153000FD5741692300F6007D1911A82D47014987
:101540006387E700636FF7002547E393E7FEF24008
:1015500062444A85D2444249B249224A924A0561CC
:101560008280130700030149E383E7FE130710039A
:1015700075BF83C63500094893844185638E06078D
:101580006369D80085476384F602FD572300F6009F
:101590003DA08D47638BF606BD47E398F6FED9471D
:1015A00063F3E7001CC08D67938787FE01A8C947D6
:1015B00063F3E7001CC08D679387C7169CC0032A9E
:1015C000040093070020D28963F4470193090020A7
:1015D00083AA0400139909014E86330A3A41D6853D
:1015E00013050500D699EF00F04F13590901232088
:1015F000440123A03401A1BF9307800C63F3E700EB
:101600001CC08D679387470A55BF83C72500638435
:101610000705636DF8008DCB8546E398D7F6A147A3
:1016200063F3E7001CC09387818149BF638ED702B3
:101630009306E00EE39BD7F4C94763F3E7001CC0B1
:101640008D67938707009DBF914763F3E7001CC038
:1016500093874181A5B79307600263F3E7001CC03D
:101660008D679387071899BFD94763F3E7001CC0BC
:10167000B70700209387070091B783C72800014967
:101680001CC0F1B52390E50023A006000949C1B5AF
:1016900003C70185011156C206CE22CC26CA4AC80C
:1016A0004EC652C49947814A6313F70483A4C18488
:1016B00013070020138AC1842684637497001304DF
:1016C0000020138941858329090037050220931AD8
:1016D00004012286818CCE85130505004E94EF000F
:1016E000704093DA0A0123209A0023208900F240F7
:1016F00062445685D2444249B249224A924A05611F
:1017000082800145828003C7018595476316F700F3
:1017100003A5C1846FE05FBD8280EFE03FC173002D
:101720002030411122C6B727004005472383E70038
:101730009387118503C7070085466394E6025145E8
:1017400023800700D5365545C5360145D53E37358A
:1017500000001305851AEF00F05132444101730077
:10176000203013841185834704000D476305F70279
:1017700051455D3E55454D3E0145D936B797004030
:1017800023A0070037070002B7E700E023A0E71017
:101790000545EFF0EFD085472300F40037240040E3
:1017A000230104004545493689472300F40075B7F5
:1017B000411122C6378400405C4413973701635AB5
:1017C0000700930720141CC00145EFE05FB3856755
:1017D0005CC4B7870040D847058B31C70547D8C7D9
:1017E000138781858346070093F6F60F81CE930613
:1017F0000028B4C7B70602009106F4C723A807045F
:10180000230007000D474545A388E184313EB727F3
:10181000004009472380E7006545238107002936FA
:101820000145EFF0EFC7378700405C47918B91C7C8
:1018300091475CC70945EFE09FAC378700405C47A4
:10184000A18B85CFA1475CC701450547A388E184EB
:10185000C53C5145D13CB727004009472380E700EC
:10186000238107004545C934B7E700E03707000288
:1018700023A0E7100545EFF0AFC2B7870040D84777
:101880009316B70063D8060037071000D8C709457C
:10189000EFE0FFA6378400405C4493F7074099CF00
:1018A000930700405CC41C48858B638A0718094570
:1018B000EFE0FFA45C400567D98F5CC0B7860040AD
:1018C000D8468567938707807D8F01CB0546238C9B
:1018D000C184DCC60145EFE09FA2378400405C4430
:1018E00013972701635B070289675CC40945EFE032
:1018F0001FA1113E0145EFE03F9F5C4093E70710B9
:101900005CC0B7870040984B098B75FFD8430945E9
:101910001377F7EFD8C3EFF00F93378400405C44A0
:10192000139707016357070C1C5037070080814647
:10193000D98F1CD0A1675CC401470146814505458C
:10194000232E0406EFE0FF8F0147814601468145C3
:101950000945EFE01F8F01478146014681450D454E
:10196000EFE03F8E01478146014681451145EFE09A
:101970005F8D01478146014681451545EFE07F8C2B
:1019800001478146014681451945EFE09F8B01479C
:101990008146014681451D45EFE0BF8A01468145EC
:1019A0000545EFE03F84014681450945EFE09F830F
:1019B000014681450D45EFE0FF8201468145114515
:1019C000EFE05F82014681451545EFE0BF810146AA
:1019D00081451945EFE01F81014681451D45EFE036
:1019E0007F800145EFE05F905C4041777D17F98F84
:1019F0005CC0378400405C4493F7070499C70545F1
:101A0000EFE0FF8F930700045CC4378400405C4420
:101A100093F7070299C70945EFE07F8E930700020D
:101A20005CC4378400405C44C18B91C70945EFE03A
:101A30001F8DC1475CC4324441017300203013053F
:101A4000007D23240400EFF00F80EFF0DF9BBDB595
:101A50004111054506C6EFE05F8511E90545EFE058
:101A6000FF8105472384E184B2404101828005471C
:101A70006313E502EFE09F8085451307004085462C
:101A800005460545EFE0EFFB8545B240130510081C
:101A900041016FE0DF820947631FE5000545EFE084
:101AA000EFFD854513070040894605460545EFE0F3
:101AB0004FF98945D9BF0D47E318E5FA0545EFE031
:101AC000EFFB8545130700408D4605460545EFE0D1
:101AD0004FF78D455DBF4111094506C6EFE0EFFCAC
:101AE0001DE9B75702209387072037870040232A34
:101AF000F7080945EFE08FF8854513070040914648
:101B000005460945EFE0EFF39145B2401305200883
:101B100041016FE0CFFA0547631FE5000945EFE09B
:101B2000EFF5854513070040854605460945EFE07A
:101B30004FF18545D9BF0947631EE500EFE00FF47B
:101B4000854513070040894605460945EFE06FEFDC
:101B5000894565BF0D47631FE5000945EFE00FF2BA
:101B60008545130700408D4605460945EFE06FEDBA
:101B70008D4561BFB2404101828041110D4506C6CD
:101B8000EFE0AFF21DE5B7470220938707203787C4
:101B900000402320F70A0D45EFE04FEE85450D4547
:101BA0001146EFE02FE491450D45B24041016FE051
:101BB0000FF105476311E5020D45EFE02FEC854578
:101BC00013070040854605460D45EFE08FE7854544
:101BD00013053008D9BF0947631FE5000D45EFE045
:101BE000EFE9854513070040894605460D45EFE0BE
:101BF0004FE58945F1BF0D47631EE500EFE00FE8B3
:101C00008545130700408D4605460D45EFE06FE31F
:101C10008D457DBFB240410182804111114506C60C
:101C2000EFE0AFE81DE5B73702209387072037873D
:101C300000402328F70A1145EFE04FE485451145A0
:101C40001146EFE02FDA91451145B24041016FE0B6
:101C50000FE785476311F5021145EFE02FE2854557
:101C600013070040854605461145EFE08FDD8545A9
:101C700013054008D9BF8947631FF5001145EFE000
:101C8000EFDF854513070040894605461145EFE023
:101C90004FDB8945F1BF8D47631FF5001145EFE02C
:101CA000EFDD8545130700408D4605461145EFE001
:101CB0004FD98D4575BFB240410182804111154514
:101CC00006C6EFE08FDE1DE5B727022093870720C9
:101CD000378700402320F70C1545EFE02FDA8545C4
:101CE00015451146EFE00FD091451545B240410131
:101CF0006FE0EFDC85476311F5021545EFE00FD883
:101D0000854513070040854605461545EFE06FD32E
:101D1000854513055008D9BF8947631FF500154550
:101D2000EFE0CFD5854513070040894605461545A8
:101D3000EFE02FD18945F1BF8D47631FF5001545B1
:101D4000EFE0CFD38545130700408D460546154586
:101D5000EFE02FCF8D4575BFB24041018280411128
:101D6000194506C6EFE06FD41DE5B717022093872B
:101D70000720378700402328F70C1945EFE00FD0E4
:101D8000854519451146EFE0EFC591451945B2402B
:101D900041016FE0CFD285476311F5021945EFE0AD
:101DA000EFCD854513070040854605461945EFE010
:101DB0004FC9854513056008D9BF8947631FF500E2
:101DC0001945EFE0AFCB854513070040894605462E
:101DD0001945EFE00FC78945F1BF8D47631FF50037
:101DE0001945EFE0AFC98545130700408D4605460C
:101DF0001945EFE00FC58D4575BFB24041018280A6
:101E000041111D4506C6EFE04FCA1DE5B707022088
:101E100093870720378700402320F70E1D45EFE00A
:101E2000EFC585451D451146EFE0CFBB91451D45EA
:101E3000B24041016FE0AFC885476311F5021D450F
:101E4000EFE0CFC3854513070040854605461D4595
:101E5000EFE02FBF854513057008D9BF8947631F81
:101E6000F5001D45EFE08FC1854513070040894609
:101E700005461D45EFE0EFBC8945F1BF8D47631F67
:101E8000F5001D45EFE08FBF8545130700408D46E7
:101E900005461D45EFE0EFBA8D4575BFB2404101E3
:101EA000828001119306D1001306E1006C00054504
:101EB00006CEEFE0CFB08347C10085EF0545EFE0E8
:101EC0000FB4B7670220938707203787004023228B
:101ED000F708854505451307004091460546EFE0A4
:101EE0004FB6914513051008EFE06FBDF240056154
:101EF00082800547639DE7000545EFE04FB08545CB
:101F000005460545EFE00FAE85450545F1BF09479C
:101F1000639CE7000545EFE08FAE85450946054522
:101F2000EFE04FAC8945D5B70D47E391E7FC054598
:101F3000EFE0EFAC85450D460545EFE0AFAA8D45D6
:101F4000E9B701119306D1001306E1006C000945C1
:101F500006CEEFE0CFA68347C10091EB0945EFE045
:101F60000FAA0547A384E184F240056182800547FA
:101F7000639FE7000945EFE08FA8854505460945C1
:101F8000EFE04FA685450945EFE06FB3F1BF094784
:101F9000639CE7000945EFE08FA6854509460945A2
:101FA000EFE04FA48945C5B70D47E39FE7FA094520
:101FB000EFE0EFA485450D460945EFE0AFA28D4562
:101FC000D9B701119306D1001306E1006C000D454D
:101FD00006CEEFE0CF9E8347C10085EF0D45EFE0D1
:101FE0000FA2B7470220938707203787004023229C
:101FF000F70A85450D451307004091460546EFE079
:102000004FA4914513053008EFE06FABF240056136
:1020100082800547639DE7000D45EFE04F9E8545B3
:1020200005460D45EFE00F9C85450D45F1BF09477D
:10203000639CE7000D45EFE08F9C854509460D4503
:10204000EFE04F9A8945D5B70D47E391E7FC0D4581
:10205000EFE0EF9A85450D460D45EFE0AF988D45D1
:10206000E9B701119306D1001306E1006C00114598
:1020700006CEEFE0CF948347C10085EF1145EFE036
:102080000F98B73702209387072037870040232A0D
:10209000F70A854511451307004091460546EFE0D4
:1020A0004F9A914513054008EFE06FA1F24005619A
:1020B00082800547639DE7001145EFE04F94854519
:1020C00005461145EFE00F9285451145F1BF0947DF
:1020D000639CE7001145EFE08F9285450946114565
:1020E000EFE04F908945D5B70D47E391E7FC1145E7
:1020F000EFE0EF9085450D461145EFE0AF8E8D4541
:10210000E9B701119306D1001306E1006C001545F3
:1021100006CEEFE0CF8A8347C10085EF1545EFE09B
:102120000F8EB7270220938707203787004023228E
:10213000F70C854515451307004091460546EFE02D
:102140004F90914513055008EFE06F97F2400561FD
:1021500082800547639DE7001545EFE04F8A85457E
:1021600005461545EFE00F8885451545F1BF094740
:10217000639CE7001545EFE08F88854509461545C6
:10218000EFE04F868945D5B70D47E391E7FC15454C
:10219000EFE0EF8685450D461545EFE0AF848D45B0
:1021A000E9B701119306D1001306E1006C0019454F
:1021B00006CEEFE0CF808347C10085EF1945EFE001
:1021C0000F84B71702209387072037870040232A00
:1021D000F70C854519451307004091460546EFE089
:1021E0004F86914513056008EFE06F8DF240056161
:1021F00082800547639DE7001945EFE04F808545E4
:1022000005461945EFD01FFE85451945F1BF094721
:10221000639CE7001945EFD09FFE854509461945A7
:10222000EFD05FFC8945D5B70D47E391E7FC194531
:10223000EFD0FFFC85450D461945EFD0BFFA8D451F
:10224000E9B701119306D1001306E1006C001D45AA
:1022500006CEEFD0DFF68347C10085EF1D45EFD0F6
:102260001FFAB707022093870720378700402322F1
:10227000F70E85451D451307004091460546EFD0F2
:102280005FFC914513057008EFE06F83F240056134
:1022900082800547639DE7001D45EFD05FF68545C9
:1022A00005461D45EFD01FF485451D45F1BF094783
:1022B000639CE7001D45EFD09FF4854509461D4509
:1022C000EFD05FF28945D5B70D47E391E7FC1D4597
:1022D000EFD0FFF285450D461D45EFD0BFF08D458F
:1022E000E9B78280B3C7A5008D8B3307C50081E7AE
:1022F0008D4763EEC700AA876370E50A83C60500B1
:1023000085078505A38FD7FEE3EAE7FE82809376F3
:102310003500AA8791CA83C6050085078505A38F66
:10232000D7FE93F63700FDB79376C7FF138606FEF8
:1023300063F0C70683A3050083A2450083AF850031
:1023400003AFC50083AE050103AE450103A38501BC
:1023500083A8C5019385450223A0770003A8C5FF84
:1023600023A2570023A4F70123A6E70123A8D7013E
:1023700023AAC70123AC670023AE17019387470246
:1023800023AE07FF75B790419107910523AEC7FEB5
:10239000E3EBD7FEE3E4E7F68280011126CA4AC8E0
:1023A00006CE22CC4EC652C4AA842E8901C51C4D2D
:1023B00091E3ED299C4C804499E32685C529971724
:1023C0000000938767E2631CF402C0408357C40097
:1023D000A18BB1C71C48A1C7FD59294A1C4483459C
:1023E0000900FD17B1E91CC463DE07062286A94572
:1023F00026854128FD576308F502294535A0971722
:102400000000938767E06314F4008044C1B7971716
:102410000000938767DBE31BF4FAC04445BFA28545
:102420002685052255D97D55F2406244D244424961
:10243000B249224A056182801CC4050963D707009E
:10244000184C63CBE700638945011C4013871700D4
:1024500018C02380B70059B7228626851D20E31FA8
:1024600035F7D1B71C401387170018C029472380C0
:10247000E70061B797E7FF1F938707C4AA858843E2
:1024800029BF011122CC26CA4AC806CE4EC6AA844C
:102490002E89328401C51C4D91E30929971700004C
:1024A000938787D46319F406C0401C4C1CC483571F
:1024B000C400A18BC9C31C48BDCF1C4808409379F8
:1024C000F90F1379F90F1D8D5C486346F500A2855D
:1024D0002685752C2DE51C440505FD171CC41C40E4
:1024E0001387170018C0238037015C486389A70051
:1024F0008357C400858B81CBA9476316F900A28559
:10250000268571240DEDF24062444A85D244424949
:10251000B24905618280971700009387E7CE631464
:10252000F400804459B7971700009387E7C9E31E6A
:10253000F4F6C0449DBFA285268521203DDD7D594E
:10254000D9B7411197E7FF1F938707B726C2844386
:1025500022C44AC006C62A892E8489C49C4C99E3A9
:102560002685A92697170000938707C8631CF402E5
:10257000C0400317C40093170701C18393F6870077
:10258000B5EE93F607019DEEA5472320F9001367EA
:1025900007042316E4007D55B240224492440249C8
:1025A0004101828097170000938707C66314F400E7
:1025B0008044C1B797170000938707C1E31BF4FA63
:1025C000C04445BF918B8DC74C5889C993074404BB
:1025D0006384F5004A85252B232A04028357C4000F
:1025E0002322040093F7B7FD2316F4001C481CC0F7
:1025F0008357C40093E787002316F4001C4881EF3B
:102600008357C4001307002093F707286385E7006A
:10261000A2854A85B9298357C40013F7170005C757
:102620005C4823240400B307F0401CCC1C4801453F
:10263000A5F78317C40013F7070839DF93E70704EA
:102640002316F40089BF898B014791E3584818C4C9
:10265000F1BF83D7C500011122CC26CA06CE4AC8D5
:102660004EC613F78700AA842E8471EFD841634DBC
:10267000E000B841634AE0000145F2406244D244C0
:102680004249B2490561828058547DD703A90400AC
:102690009396370123A0040063DD06067048835734
:1026A000C400918B99C75C401D8E5C5899C33C4017
:1026B0001D8E5C540C50814626858297FD5703572A
:1026C000C400631DF5009440F54763E8D706B707DB
:1026D00040208507B3D7D700858BA5C31C4823228C
:1026E00004001CC09317370163D80700FD5763141B
:1026F000F5009C4091E368C84C5823A02401ADDD4F
:10270000930744046384F50026851121232A0402DB
:10271000A5B70C500146854626850297FD572A86A7
:10272000E31FF5F69C40A5DF75476385E700594731
:102730006394E70423A0240181B7136707042316D9
:10274000E4007D551DBF83A90501E38709F203A9B4
:1027500005008D8B23A0350133093941014791E3F1
:10276000D84918C4E35A20F11C540C50CA864E862E
:10277000268582976349A0008357C40093E7070426
:102780002316F4007DBFAA993309A940E1BF9C49F3
:10279000B9CF011122CC06CE2A8411C51C4D81E788
:1027A0002EC62922B245971700009387E7A3639BA3
:1027B000F5004C408397C50095C722856244F240DE
:1027C000056141BD97170000938707A46394F50046
:1027D0000C44CDB7971700009387079FE39CF5FC47
:1027E0004C44C9BFF2406244014505618280014505
:1027F0008280411122C406C62A842316B5002317FD
:10280000C5002320050023220500232405002322E0
:10281000050623280500232A0500232C0500214650
:1028200081451305C505EFD05FCC9707000093875E
:10283000E7475CD0970700009387474A1CD4970767
:1028400000009387874E5CD4970700009387475119
:1028500000D01CD8B240224441018280970500007C
:10286000938525F3A9A2411126C2130680069384FD
:10287000F5FFB384C4024AC02E8922C406C69385DC
:102880004407052E2A8401CD23200500232225019B
:10289000310508C4138684068145EFD01FC5228503
:1028A000B240224492440249410182801C4DADE372
:1028B000411106C622C497070000938767FA1CD50A
:1028C000938701829C43232405042326050423289F
:1028D00005046314F50085471CCD2A841D2848C0D3
:1028E0002285052808C422852D2048C44840014679
:1028F0009145013708440546A545E53D484409464C
:10290000C945C53D85471CCCB24022444101828067
:10291000828041119387018226C284434AC006C641
:102920009C4C22C42A8999E32685493793848404E0
:102930008044DC40FD1763D607009C40B9CF84403B
:10294000C5BF0317C40039E7C177850723220406F2
:102950002320040023220400232404005CC4232831
:102960000400232A0400232C04002146814513057A
:10297000C405EFD09FB7232A0402232C040223248A
:102980000404232604042285B240224492440249CE
:10299000410182801304840671BF91454A85E13567
:1029A00088C051FDB1472320F9000144E9BF797186
:1029B00022D44AD052CC56CA5AC85EC606D626D2AF
:1029C0004ECE2A8AAE8A130485040149054BFD5B6D
:1029D00009ECB25022544A8592540259F249624A93
:1029E000D24A424BB24B4561828004448329440061
:1029F000FD1963D409000040E1BF83D7C400637BA5
:102A0000FB008397E40063877701A6855285829A4D
:102A10003369A90093848406E1BF1971A6DAAE84F4
:102A20008395E500A2DC86DE328463DC050083D773
:102A3000C40023A0060093F707089DE39307004016
:102A400015A0300836C68D2EB246E34205FE724709
:102A5000BD67F98F7977BA9793B717009CC2F9BF12
:102A6000930700041CC0F6506654D6540145096112
:102A7000828083D7C500011122CC06CE26CA4AC85F
:102A8000898B2E8489CF930774041CC01CC885478A
:102A90005CC8F2406244D2444249056182807400BD
:102AA0003000AA849D3FA2452A892685192201ED7E
:102AB0008317C40013F7072069FFF19B93E72700F2
:102AC0002316F400C9B797070000938767D99CD4F1
:102AD0008357C40008C008C893E707082316F4000A
:102AE000A2475CC8B24789CF8315E4002685D52C60
:102AF00001C98357C400F19B93E717002316F40024
:102B00008357C4003369F9002316240159B7CDC196
:102B100083A7C5FF411122C406C626C21384C5FF80
:102B200063D307003E94AA843926938701869C4389
:102B300099EB2322040023A081862244B2402685FB
:102B400092444101D5AC637EF40014403307D400B5
:102B50006396E7009843DC43369718C05CC0E1BF3A
:102B6000BA87D84319C3E37DE4FE94433386D70084
:102B7000631F86001040B29694C33386D700E31ECD
:102B8000C7FA10435843B29694C3D8C37DB7637550
:102B9000C400B1479CC055B71040B306C4006316CB
:102BA000D70014435843B29614C058C0C0C371B77D
:102BB0008280011126CA93843500F19806CE22CC7A
:102BC0004AC84EC6A104B14763F1F404B14463E0BE
:102BD000B4042A898D249387018698433A8431E08E
:102BE000938741869C4391E781454A85512823A2DA
:102BF000A186A6854A856920FD5963173507B14727
:102C00002320F9004A850D2C29A0E3D204FCB1470A
:102C10001CC10145F2406244D2444249B2490561B7
:102C200082801C40858F63CE0702AD4663F6F600B6
:102C30001CC03E9404C031A05C406312870223A0F4
:102C4000F1864A85D52A1305B4009307440061999B
:102C50003307F54061D33A94898F1CC065BF5CC3CC
:102C6000CDB722874040A5BF130435007198E30318
:102C700085FCB305A4404A852120E31D35FB41B7FF
:102C8000411122C42A842E8523AA018606C6112C4E
:102C9000FD576317F500938741879C4391C31CC080
:102CA000B240224441018280411122C42E84839586
:102CB000E50006C65922634905007C48AA977CC8EE
:102CC000B2402244410182808357C4007D777D1742
:102CD000F98F2316F400EDB783D7C500011122CC7C
:102CE00026CA4AC84EC606CE93F70710AA842E8479
:102CF0003289B68991C78395E5008946014631221C
:102D00008357C4007D777D17F98F2316F400831550
:102D1000E4006244F240CE864A86B24942492685A2
:102D2000D24405613DA8411122C42E848395E5005B
:102D300006C6E128FD570357C400631BF500FD7765
:102D4000FD17F98F2316F400B2402244410182801E
:102D50008567D98F2316F40068C8FDB78395E50011
:102D600005A8411122C42A842E85B285368623AA5D
:102D7000018606C6EFD07FD2FD576317F500938713
:102D800041879C4391C31CC0B240224441018280D0
:102D9000411122C42A842E8523AA018606C6E12079
:102DA000FD576317F500938741879C4391C31CC06F
:102DB000B240224441018280411122C42A842E85DE
:102DC000B28523AA018606C66D20FD576317F5005C
:102DD000938741879C4391C31CC0B2402244410168
:102DE0008280411122C42A842E8523AA018606C628
:102DF0007920FD576317F500938741879C4391C362
:102E00001CC0B240224441018280411122C42A8464
:102E10002E85B285368623AA018606C6BD20FD57BB
:102E20006317F500938741879C4391C31CC0B24050
:102E300022444101828082808280411122C42A84FE
:102E40002E85B285368623AA018606C6A920FD579F
:102E50006317F500938741879C4391C31CC0B24020
:102E60002244410182809307800523AAF1867D5583
:102E700082809307800523AAF1867D55828093077F
:102E8000800523AAF186014582809307800523AA45
:102E9000F1867D5582809307800523AAF1867D55B2
:102EA0008280938781869C4391C73E9523A4A18607
:102EB0003E858280938781873E9523A4A1863E85A7
:102EC0008280000024090000400900005C09000025
:102ED0007E09000090090000A8090000C009000058
:102EE000E0090000F2090000060A00001A0A0000CA
:102EF000A00F0000A20E00001C0D0000240F000017
:102F00001C0D0000440E0000000D00001C0D000010
:102F1000520E00005E0E0000940D0000940D0000A3
:102F2000050F160002071002020000000A1003003D
:102F30000E00010AFF070000090274000101008071
:102F400064090400000EFFFFFF0007058102000274
:102F500000070501020002000705820200020007C7
:102F600005020200020007058302000200070503B4
:102F700002000200070584020002000705040200A7
:102F80000200070585020002000705050200020095
:102F90000705860200020007050602000200070579
:102FA000870200020007050702000200120100026A
:102FB00000000040861A3755001101020001000090
:102FC00026035700430048002000550053004200EC
:102FD00032002E0030002000440045005600490019
:102FE0004300450020000000050F160002071002F4
:102FF000060000000A1003000E00010AFF0700008F
:1030000012034D00530046005400310030003000E0
:10301000010000008E000000000105000100840096
:1030200000000100000028004400650076006900EF
:103030006300650049006E00740065007200660060
:10304000610063006500470055004900440000002E
:103050004E0000007B0031003200330034003500A8
:103060003600370038002D003100320033003400C4
:103070002D0031003200330034002D0031003200C9
:10308000330034002D0031003200330034003500AD
:1030900036003700380039004100420043007D000F
:1030A000000000000902C80001010080640904005A
:1030B000000EFFFFFF000705810200040006300339
:1030C00000000007050102000400063003000000B4
:1030D0000705820200040006300300000007050215
:1030E000020004000630030000000705830200040C
:1030F000000630030000000705030200040006304C
:1031000003000000070584020004000630030000ED
:103110000007050402000400063003000000070554
:1031200085020004000630030000000705050200C8
:1031300004000630030000000705860200040006B4
:1031400030030000000705060200040006300300FB
:103150000000070587020004000630030000000796
:1031600005070200040006300300000012010003FE
:10317000FF805509861A375500010102030100003E
:10318000260357004300480020005500530042002A
:1031900033002E0030002000440045005600490056
:1031A0004300450020000000555342332E30206478
:1031B000697361626C650000496E697420657272A2
:1031C00000000000000000000000000000000000FF
:1031D00000000000000000000000000000000000EF
:1031E00000000000000000000000000000000000DF
:1031F00000000000000000000000000000000000CF
:1032000000000000000000000000000000000000BE
:1032100000000000000000000000000000000000AE
:0432200000000000AA
:10322400160330003100320033003400350036001C
:103234003700380039000000501A0000D61A000088
:103244007A1B00001A1C0000BC1C00005E1D00005C
:10325400001E0000A21E0000421F0000C21F00004A
:103264006220000002210000A2210000422200008E
:1032740000000000E431000004320000C43100000A
:10328400000000000000000000000000000000003A
:10329400000000000000000000000000000000002A
:1032A400000000000000000000000000000000001A
:1032B400000000000000000000000000000000000A
:1032C40000000000000000000000000000000000FA
:1032D4000002000050000020040309040803570002
:1032E400430048000403090408035700430048004E
:0832F400500000200000000062
:1032FC0000000000000000000000000000000000C2
:10330C0000000000000000000000000000000000B1
:10331C0000000000000000000000000000000000A1
:10332C000000000000000000000000000000000091
:00000001FF
